:020000040800F2
:1000000000000220D53B00085D360008633600087A
:100010006D360008733600087936000800000000CD
:100020000000000000000000000000007F36000813
:100030008D360008000000009B360008A936000835
:10004000253C0008253C0008253C0008253C00080C
:10005000253C0008253C0008253C0008253C0008FC
:10006000253C0008253C0008253C0008253C0008EC
:10007000253C0008253C0008253C0008253C0008DC
:10008000253C0008253C0008253C0008253C0008CC
:10009000253C0008253C0008253C0008253C0008BC
:1000A000253C0008253C0008253C0008253C0008AC
:1000B000253C0008B5360008253C0008253C000812
:1000C000253C0008253C0008253C0008253C00088C
:1000D000253C0008253C0008253C0008253C00087C
:1000E000253C0008253C0008253C0008253C00086C
:1000F000253C0008253C0008253C0008253C00085C
:10010000253C0008253C0008253C0008253C00084B
:10011000253C0008253C0008253C0008253C00083B
:10012000253C0008253C0008253C0008253C00082B
:10013000253C0008253C0008253C0008253C00081B
:10014000253C0008253C0008253C0008253C00080B
:10015000253C0008253C0008253C0008253C0008FB
:10016000253C0008253C0008253C0008253C0008EB
:10017000253C0008253C0008253C00080000000044
:08018000253C0008253C0008A5
:1001900010B5054C237833B9044B13B10448AFF3C1
:1001A00000800123237010BD6002002000000000C9
:1001B000ACF3000808B5034B1BB103490348AFF388
:1001C000008008BD0000000064020020ACF30008BD
:1001D000034613F8012B002AFBD1181A0138704787
:1001E00001F0FF01102A2BDB10F0070F08D010F8E8
:1001F000013B013A8B422DD010F0070F42B3F6D1EC
:10020000F0B441EA012141EA014122F007047FF004
:1002100000070023F0E80256083C85EA010586EA5B
:10022000010685FA47F5A3FA87F586FA47F6A5FA97
:1002300087F68EB9EED1F0BC01F0FF0102F00702A3
:1002400032B110F8013B013A83EA010313B1F8D14E
:100250000020704701387047002D06BF354603382F
:10026000073815F0010F07D1013015F4807F02BF68
:10027000013015F4C03F0130F0BC0138704700BFB9
:1002800081F0004102E000BF83F0004330B54FEA47
:1002900041044FEA430594EA050F08BF90EA020FB4
:1002A0001FBF54EA000C55EA020C7FEA645C7FEA47
:1002B000655C00F0E2804FEA5454D4EB5555B8BF6A
:1002C0006D420CDD2C4480EA020281EA030382EADB
:1002D000000083EA010180EA020281EA0303362D6D
:1002E00088BF30BD11F0004F4FEA01314FF4801C40
:1002F0004CEA113102D0404261EB410113F0004F52
:100300004FEA03334CEA133302D0524263EB430308
:1003100094EA050F00F0A780A4F10104D5F1200EA6
:100320000DDB02FA0EFC22FA05F2801841F1000101
:1003300003FA0EF2801843FA05F359410EE0A5F1D5
:1003400020050EF1200E012A03FA0EFC28BF4CF006
:10035000020C43FA05F3C01851EBE37101F00045BC
:1003600007D54FF0000EDCF1000C7EEB00006EEBC9
:100370000101B1F5801F1BD3B1F5001F0CD3490853
:100380005FEA30004FEA3C0C04F101044FEA4452AA
:1003900012F5800F80F09A80BCF1004F08BF5FEA31
:1003A000500C50F1000041EB045141EA050130BD11
:1003B0005FEA4C0C404141EB0101013C28BFB1F523
:1003C000801FE9D291F0000F04BF01460020B1FA6E
:1003D00081F308BF2033A3F10B03B3F120020CDA41
:1003E0000C3208DD02F1140CC2F10C0201FA0CF01F
:1003F00021FA02F10CE002F11402D8BFC2F1200C84
:1004000001FA02F120FA0CFCDCBF41EA0C01904039
:10041000E41AA2BF01EB0451294330BD6FEA040482
:100420001F3C1CDA0C340EDC04F11404C4F120026D
:1004300020FA04F001FA02F340EA030021FA04F37F
:1004400045EA030130BDC4F10C04C4F1200220FAD6
:1004500002F001FA04F340EA0300294630BD21FA14
:1004600004F0294630BD94F0000F83F4801306BFDA
:1004700081F480110134013D4EE77FEA645C18BFCE
:100480007FEA655C29D094EA050F08BF90EA020F65
:1004900005D054EA000C04BF1946104630BD91EA5D
:1004A000030F1EBF0021002030BD5FEA545C05D160
:1004B0004000494128BF41F0004130BD14F580049F
:1004C0003CBF01F5801130BD01F0004545F0FE4113
:1004D00041F470014FF0000030BD7FEA645C1ABF48
:1004E000194610467FEA655C1CBF0B46024650EA7F
:1004F000013406BF52EA033591EA030F41F40021AB
:1005000030BD00BF90F0000F04BF0021704730B530
:100510004FF4806404F132044FF000054FF0000105
:1005200050E700BF90F0000F04BF0021704730B5C6
:100530004FF4806404F1320410F0004548BF40429B
:100540004FF000013EE700BF42004FEAE2014FEAF0
:1005500031014FEA02701FBF12F07F4393F07F4FCB
:1005600081F06051704732F07F4208BF704793F0CE
:100570007F4F04BF41F40021704730B54FF46074E1
:1005800001F0004521F000411CE700BF50EA0102E4
:1005900008BF704730B54FF000050AE050EA01028D
:1005A00008BF704730B511F0004502D5404261EBFD
:1005B00041014FF4806404F132045FEA915C3FF43E
:1005C000D8AE4FF003025FEADC0C18BF03325FEADB
:1005D000DC0C18BF033202EBDC02C2F1200300FA8C
:1005E00003FC20FA02F001FA03FE40EA0E0021FAB1
:1005F00002F11444BDE600BF70B54FF0FF0C4CF49F
:10060000E06C1CEA11541DBF1CEA135594EA0C0F50
:1006100095EA0C0F00F0DEF82C4481EA030621EA8B
:100620004C5123EA4C5350EA013518BF52EA0335C6
:1006300041F4801143F4801338D0A0FB02CE4FF078
:100640000005E1FB02E506F00042E0FB03E54FF0A8
:100650000006E1FB03569CF0000F18BF4EF0010EA0
:10066000A4F1FF04B6F5007F64F5407404D25FEA9C
:100670004E0E6D4146EB060642EAC62141EA55514F
:100680004FEAC52040EA5E504FEACE2EB4F1FD0C91
:1006900088BFBCF5E06F1ED8BEF1004F08BF5FEA0F
:1006A000500E50F1000041EB045170BD06F00046C1
:1006B00046EA010140EA020081EA0301B4EB5C046E
:1006C000C2BFD4EB0C0541EA045170BD41F4801166
:1006D0004FF0000E013C00F3AB8014F1360FDEBF8B
:1006E000002001F0004170BDC4F10004203C35DA67
:1006F0000C341BDC04F11404C4F1200500FA05F3EA
:1007000020FA04F001FA05F240EA020001F000428A
:1007100021F0004110EBD37021FA04F642EB060100
:100720005EEA430E08BF20EAD37070BDC4F10C042A
:10073000C4F1200500FA04F320FA05F001FA04F2EE
:1007400040EA020001F0004110EBD37041F10001DA
:100750005EEA430E08BF20EAD37070BDC4F12005E5
:1007600000FA05F24EEA020E20FA04F301FA05F24D
:1007700043EA020321FA04F001F0004121FA04F2F5
:1007800020EA020000EBD3705EEA430E08BF20EAC5
:10079000D37070BD94F0000F0FD101F000464000FF
:1007A00041EB010111F4801F08BF013CF7D041EA81
:1007B000060195F0000F18BF704703F00046520085
:1007C00043EB030313F4801F08BF013DF7D043EA56
:1007D0000603704794EA0C0F0CEA135518BF95EA0C
:1007E0000C0F0CD050EA410618BF52EA4306D1D193
:1007F00081EA030101F000414FF0000070BD50EAB2
:10080000410606BF1046194652EA430619D094EA3B
:100810000C0F02D150EA013613D195EA0C0F05D125
:1008200052EA03361CBF104619460AD181EA030179
:1008300001F0004141F0FE4141F470014FF0000031
:1008400070BD41F0FE4141F4780170BD70B54FF0CC
:10085000FF0C4CF4E06C1CEA11541DBF1CEA13554C
:1008600094EA0C0F95EA0C0F00F0A7F8A4EB05042E
:1008700081EA030E52EA03354FEA013100F0888025
:100880004FEA03334FF0805545EA131343EA1263EE
:100890004FEA022245EA111545EA10654FEA0026A3
:1008A0000EF000419D4208BF964244F1FD0404F55C
:1008B000407402D25B084FEA3202B61A65EB0305B8
:1008C0005B084FEA32024FF480104FF4002CB6EB75
:1008D000020E75EB030E22BFB61A754640EA0C00F5
:1008E0005B084FEA3202B6EB020E75EB030E22BF35
:1008F000B61A754640EA5C005B084FEA3202B6EB76
:10090000020E75EB030E22BFB61A754640EA9C0034
:100910005B084FEA3202B6EB020E75EB030E22BF04
:10092000B61A754640EADC0055EA060E18D04FEAC2
:10093000051545EA16754FEA06164FEAC30343EA62
:1009400052734FEAC2025FEA1C1CC0D111F4801F2F
:100950000BD141EA00014FF000004FF0004CB6E728
:1009600011F4801F04BF01430020B4F1FD0C88BFC7
:10097000BCF5E06F3FF6AFAEB5EB030C04BFB6EBD2
:10098000020C5FEA500C50F1000041EB045170BDC5
:100990000EF0004E4EEA113114EB5C04C2BFD4EBF2
:1009A0000C0541EA045170BD41F480114FF0000E76
:1009B000013C90E645EA060E8DE60CEA135594EAF2
:1009C0000C0F08BF95EA0C0F3FF43BAF94EA0C0FF5
:1009D0000AD150EA01347FF434AF95EA0C0F7FF46A
:1009E00025AF104619462CE795EA0C0F06D152EABE
:1009F00003353FF4FDAE1046194622E750EA4106A2
:100A000018BF52EA43067FF4C5AE50EA41047FF4B2
:100A10000DAF52EA43057FF4EBAE12E74FF0FF3C17
:100A200006E000BF4FF0010C02E000BF4FF0010CE8
:100A30004DF804CD4FEA410C7FEA6C5C4FEA430C61
:100A400018BF7FEA6C5C1BD001B050EA410C0CBFB0
:100A500052EA430C91EA030F02BF90EA020F002012
:100A6000704710F1000F91EA030F58BF994208BF79
:100A700090422CBFD8176FEAE37040F00100704736
:100A80004FEA410C7FEA6C5C02D150EA013C07D18D
:100A90004FEA430C7FEA6C5CD6D152EA033CD3D0D8
:100AA0005DF8040B704700BF8446104662468C46D2
:100AB0001946634600E000BF01B5FFF7B7FF002805
:100AC00048BF10F1000F01BD4DF808EDFFF7F4FF2E
:100AD0000CBF012000205DF808FB00BF4DF808EDB9
:100AE000FFF7EAFF34BF012000205DF808FB00BFDC
:100AF0004DF808EDFFF7E0FF94BF012000205DF8FE
:100B000008FB00BF4DF808EDFFF7CEFF94BF0120B2
:100B100000205DF808FB00BF4DF808EDFFF7C4FFAB
:100B200034BF012000205DF808FB00BF4FEA410CF4
:100B30007FEA6C5C02D150EA013C0AD14FEA430CD7
:100B40007FEA6C5C02D152EA033C02D14FF0000014
:100B500070474FF0010070474FEA410212F5001252
:100B600015D211D56FF47873B3EB625212D94FEAF4
:100B7000C12343F0004343EA505311F0004F23FADE
:100B800002F018BF404270474FF00000704750EA33
:100B9000013005D111F0004008BF6FF000407047F0
:100BA0004FF00000704700BF4A0011D212F500124A
:100BB00011D20DD56FF47873B3EB62520ED44FEAB5
:100BC000C12343F0004343EA505323FA02F0704735
:100BD0004FF00000704750EA013002D14FF0FF3073
:100BE00070474FF0000070474FEA4102B2F1E04316
:100BF00024BFB3F5001CDCF1FE5C0DD901F0004C04
:100C00004FEAC0024CEA5070B2F1004F40EB830053
:100C100008BF20F00100704711F0804F21D113F17F
:100C20003872BCBF01F00040704741F480114FEAB8
:100C30005252C2F11802C2F1200C10FA0CF320FA41
:100C400002F018BF40F001004FEAC1234FEAD3235E
:100C500003FA0CFC40EA0C0023FA02F34FEA4303C8
:100C6000CCE77FEA625307D150EA01331EBF4FF051
:100C7000FE4040F44000704701F0004040F0FE406C
:100C800040F40000704700BF53B94AB9002908BFBB
:100C900000281CBF4FF0FF314FF0FF3000F0AAB921
:100CA000ADF1080C6DE904CE00F03CF8DDF804E08D
:100CB000DDE9022304B0704738B500220023044662
:100CC0000D46FFF70BFF28B920462946BDE83840FE
:100CD00000F00AB8204605F1004100F005F8404256
:100CE00061EB410138BD00BFD0B50C4B0022064678
:100CF0000F46FFF781FCFFF757FF0446FFF702FCA2
:100D0000074B0022FFF778FC02460B463046394677
:100D1000FFF7BAFAFFF748FF2146D0BD0000F03DCB
:100D20000000F0412DE9F047089D04468E46002B57
:100D30004DD18A42944669D9B2FA82F252B101FA8F
:100D400002F3C2F1200120FA01F10CFA02FC41EA9F
:100D5000030E94404FEA1C48210CBEFBF8F61FFA24
:100D60008CF708FB16E341EA034306FB07F19942BF
:100D70000AD91CEB030306F1FF3080F01F81994272
:100D800040F21C81023E63445B1AA4B2B3FBF8F04C
:100D900008FB103344EA034400FB07F7A7420AD9D3
:100DA0001CEB040400F1FF3380F00A81A74240F2FB
:100DB00007816444023840EA0640E41B00261DB166
:100DC000D4400023C5E900433146BDE8F0878B429B
:100DD00009D9002D00F0EF800026C5E9000130465A
:100DE0003146BDE8F087B3FA83F6002E4AD18B4234
:100DF00002D3824200F2F980841A61EB03030120DE
:100E00009E46002DE0D0C5E9004EDDE702B9FFDEC9
:100E1000B2FA82F2002A40F09280A1EB0C014FEA74
:100E20001C471FFA8CFE0126200CB1FBF7F307FBD1
:100E3000131140EA01410EFB03F0884208D91CEB74
:100E4000010103F1FF3802D2884200F2CB80434611
:100E5000091AA4B2B1FBF7F007FB101144EA0144F0
:100E60000EFB00FEA64508D91CEB040400F1FF317F
:100E700002D2A64500F2BB800846A4EB0E0440EA6D
:100E800003409CE7C6F12007B34022FA07FC4CEA76
:100E9000030C20FA07F401FA06F31C43F9404FEA69
:100EA0001C4900FA06F3B1FBF9F8200C1FFA8CFE7E
:100EB00009FB181140EA014108FB0EF0884202FAD2
:100EC00006F20BD91CEB010108F1FF3A80F0888093
:100ED000884240F28580A8F102086144091AA4B250
:100EE000B1FBF9F009FB101144EA014100FB0EFED1
:100EF0008E4508D91CEB010100F1FF346CD28E4500
:100F00006AD90238614440EA0840A0FB0294A1EB90
:100F10000E01A142C846A64656D353D05DB1B3EBED
:100F2000080261EB0E0101FA07F722FA06F3F1401D
:100F30001F43C5E9007100263146BDE8F087C2F1C4
:100F40002003D8400CFA02FC21FA03F3914001433C
:100F50004FEA1C471FFA8CFEB3FBF7F007FB103675
:100F60000B0C43EA064300FB0EF69E4204FA02F421
:100F700008D91CEB030300F1FF382FD29E422DD974
:100F8000023863449B1B89B2B3FBF7F607FB1633A9
:100F900041EA034106FB0EF38B4208D91CEB010129
:100FA00006F1FF3816D28B4214D9023E6144C91AA9
:100FB00046EA004638E72E46284605E70646E3E6B9
:100FC0001846F8E64B45A9D2B9EB020864EB0C0EC3
:100FD0000138A3E74646EAE7204694E74046D1E7D2
:100FE000D0467BE7023B614432E7304609E7644480
:100FF000023842E7704700BF80B584B000AF3B467F
:1010000000221A605A609A60DA60214B214A1A6005
:101010001F4B4FF480325A601D4B00229A601C4BCC
:1010200000221A611A4B00221A76194B002283F80B
:101030002020174B0022DA62154B174A9A62144B94
:101040000022DA60124B0122DA61114B002283F890
:1010500030200F4B01225A610D4805F0F1FB034689
:10106000002B01D002F04EFA08233B6001237B6085
:101070000023BB603B461946054805F025FC0346A6
:10108000002B01D002F03EFA00BF1037BD4680BDF4
:101090007C020020002001400100000F80B58AB0D2
:1010A00000AF786007F1140300221A605A609A605A
:1010B000DA601A617B681B68174A934227D10023C4
:1010C0003B61164B5B6C154A43F480735364134BBE
:1010D0005B6C03F480733B613B690023FB600F4B47
:1010E0001B6B0E4A43F0020313630C4B1B6B03F0A4
:1010F0000203FB60FB6801237B610323BB610023C8
:10110000FB6107F114031946054805F027FF00BFEE
:101110002837BD4680BD00BF002001400038024096
:101120000004024080B58AB000AF07F1140300222A
:101130001A605A609A60DA601A6100233B61424B80
:101140001B6B414A43F0800313633F4B1B6B03F05F
:1011500080033B613B690023FB603B4B1B6B3A4ABE
:1011600043F001031363384B1B6B03F00103FB6077
:10117000FB680023BB60344B1B6B334A43F0020314
:101180001363314B1B6B03F00203BB60BB6800238E
:101190007B602D4B1B6B2C4A43F0080313632A4BD7
:1011A0001B6B03F008037B607B680122102127483A
:1011B00006F070F801224FF48051254806F06AF8D5
:1011C00001224FF44071234806F064F810237B613C
:1011D0000123BB610023FB6102233B6207F114037F
:1011E00019461A4805F0BAFE4FF480537B6101237B
:1011F000BB610023FB6102233B6207F11403194624
:10120000134805F0ABFE4FF440737B610123BB61D3
:101210000023FB6102233B6207F1140319460D48CA
:1012200005F09CFE4FF440637B614FF48813BB6173
:101230000023FB6107F114031946064805F08EFEF2
:1012400000BF2837BD4680BD003802400000024084
:1012500000040240000C024080B487B000AF786107
:1012600087ED040AC7ED030A87ED021AC7ED011ADC
:101270007B693A691A607B69FA685A607B697A68A7
:101280001A617B69BA689A6000BF1C37BD465DF879
:10129000047B7047B0B582B000AF786087ED000A7C
:1012A0007B6893ED017A7B68D3ED027A77EE277A3B
:1012B0007B68C3ED017A7B68D3ED016A7B6893EDAF
:1012C000017A7B68D3ED007A37EE277AC6EE877A0B
:1012D0007B68C3ED057A7B6893ED047A7B68D3ED78
:1012E000056A7B68D3ED047A97ED006A76EE677A3B
:1012F00066EEA77A77EE277A7B68C3ED037A7B6880
:101300005B691846FFF720F902460B464FF00000D4
:101310001349FEF7B9FF02460B4614461D467B688B
:101320005B681846FFF710F902460B46204629462F
:10133000FFF762F902460B4610461946FFF754FCC8
:1013400002467B685A607B68DA687B681A617B6852
:10135000DB6807EE903AB0EE670A0837BD46B0BDCD
:101360000000F03F80B582B000AF7860391D0123E6
:101370000122044807F01FFF7B6818460837BD4666
:1013800080BD00BFA405002080B500AF1A4803F05F
:1013900055FE0346002B02D0174803F021FF1648E4
:1013A00003F05CFE0346002B02D0134803F0EAFE74
:1013B000114803F081FE0346002B05D00E4803F0D0
:1013C000FDFE0D4802F0A2FE0B4803F0CBFE0346E3
:1013D000002B05D0084803F0F1FE074802F096FE06
:1013E000054803F04BFE0346002B02D0024803F0F1
:1013F000E5FE00BF80BD00BF1000002080B5AAB090
:1014000000AF7860396007F10C0380220021184694
:1014100008F096FA0023C7F8A4300023C7F8A030DC
:101420002AE05A4B9B8A1A46D7F8A03042FA03F3B7
:1014300003F00103002B1AD0D7F8A0301B017A6803
:1014400013449A68D7F8A430DB00A8333B449C3B94
:101450001A60D7F8A430DB00A8333B44D7F8A020AB
:1014600043F8982CD7F8A4300133C7F8A430D7F844
:10147000A0300133C7F8A030D7F8A0300F2BD0DD53
:101480000023C7F89C3052E0D7F89C300133C7F8EE
:10149000983041E0D7F89C30DB00A8333B449C3BBC
:1014A00093ED007AD7F89830DB00A8333B449C3B9F
:1014B000D3ED007AB4EEE77AF1EE10FA27D507F112
:1014C0000C02D7F89C30DB00D11807F18C030822FE
:1014D000184608F027FA07F10C02D7F89C30DB0019
:1014E000D01807F10C02D7F89830DB00134408221B
:1014F000194608F017FA07F10C02D7F89830DB000C
:10150000134407F18C010822184608F00BFAD7F8AB
:1015100098300133C7F89830D7F89820D7F8A4301E
:101520009A42B7DBD7F89C300133C7F89C30D7F824
:10153000A430013BD7F89C209A42A5DB3B680022EF
:101540001A800023C7F8943017E03B681B881AB252
:10155000D7F89430DB00A8333B4453F8983C012182
:1015600001FA03F31BB213431BB29AB23B681A8011
:10157000D7F894300133C7F89430D7F89430032B60
:10158000E3DD00BF00BFA837BD4680BDC802002014
:1015900080B5A8B000AF786007F108038022002171
:1015A000184608F0CDF90023C7F89C300023C7F88F
:1015B00098302AE0484B9B8A1A46D7F8983042FA6E
:1015C00003F303F00103002B1AD0D7F898301B0166
:1015D0007A6813449A68D7F89C30DB00A0333B4408
:1015E000983B1A60D7F89C30DB00A0333B44D7F817
:1015F000982043F8942CD7F89C300133C7F89C30DE
:10160000D7F898300133C7F89830D7F898300F2BB7
:10161000D0DD0023C7F8943052E0D7F8943001337E
:10162000C7F8903041E0D7F89430DB00A0333B445A
:10163000983B93ED007AD7F89030DB00A0333B4421
:10164000983BD3ED007AB4EEE77AF1EE10FA27D5A5
:1016500007F10802D7F89430DB00D11807F18803AE
:101660000822184608F05EF907F10802D7F894300E
:10167000DB00D01807F10802D7F89030DB001344E4
:101680000822194608F04EF907F10802D7F8903001
:10169000DB00134407F188010822184608F042F9DC
:1016A000D7F890300133C7F89030D7F89020D7F8AA
:1016B0009C309A42B7DBD7F894300133C7F89430A6
:1016C000D7F89C30013BD7F894209A42A5DBFB6801
:1016D0001846A037BD4680BDC802002080B493B034
:1016E00000AF87ED0B0AC7ED0A0A87ED091AC7EDAF
:1016F000081A87ED072AC7ED062A87ED053AC7EDD8
:10170000043A87ED034AB8607960D7ED057AB3EE05
:101710000E7AF4EEC77AF1EE10FA40F12F81D7ED90
:10172000047AB3EE0E7AF4EEC77AF1EE10FA40F1D5
:101730002581D7ED037AB3EE0E7AF4EEC77AF1EE97
:1017400010FA40F11B81D7ED057AF5EEC07AF1EE83
:1017500010FA40F31381D7ED047AF5EEC07AF1EE7A
:1017600010FA40F30B81D7ED037AF5EEC07AF1EE73
:1017700010FA40F3038197ED097AD7ED0B7A77EEF3
:10178000677A77EEA77AC7ED117A97ED087AD7EDE9
:101790000A7A77EE677A77EEA77AC7ED107AD7EDF7
:1017A000057A27EEA77AD7ED047A67EEA77A37EEA7
:1017B000677AD7ED0B7A67EEA77A37EE677AD7EDBF
:1017C000097A67EEA77A37EE277AD7ED0A7A67EEBD
:1017D000A77A37EE677AD7ED087A67EEA77A77EEC1
:1017E000277AC7ED0F7A97ED077AD7ED0B7A77EE68
:1017F000677A77EEA77AC7ED0E7A97ED067AD7ED7E
:101800000A7A77EE677A77EEA77AC7ED0D7AD7ED89
:10181000057A27EEA77AD7ED037A67EEA77A37EE37
:10182000677AD7ED0B7A67EEA77A37EE677AD7ED4E
:10183000077A67EEA77A37EE277AD7ED0A7A67EE4E
:10184000A77A37EE677AD7ED067A67EEA77A77EE52
:10185000277AC7ED0C7A97ED0D7AD7ED117A27EE3E
:10186000277AD7ED106AD7ED0E7A66EEA77A77EE73
:10187000677AF5EE407AF1EE10FA7DD097ED0F7AA7
:10188000D7ED0D7A27EE277AD7ED0C6AD7ED107ACF
:1018900066EEA77A77EE676A97ED0D7AD7ED117A43
:1018A00027EE277A97ED106AD7ED0E7A66EE277A43
:1018B00037EE677AC6EE877ABB68C3ED007A97ED9C
:1018C0000F7AD7ED0E7A27EE277AD7ED116AD7ED8A
:1018D0000C7A66EEA77A77EE676A97ED107AD7ED05
:1018E0000E7A27EE277A97ED116AD7ED0D7A66EE1C
:1018F000277A37EE677AC6EE877A7B68C3ED007A7F
:10190000BB68D3ED007AF4EE677AF1EE10FA31D6C7
:101910007B68D3ED007AF4EE677AF1EE10FA29D6FF
:10192000BB68D3ED007AF0EEE77A9FED187AF4EE1B
:10193000477AF1EE10FAD4BF01230023DBB283F023
:101940000103DBB2002B15D17B68D3ED007AF0EEFA
:10195000E77A9FED0E7AF4EE477AF1EE10FAD4BFF3
:1019600001230023DBB283F00103DBB2002B01D1A2
:10197000012304E0002302E0002300E000231846D6
:101980004C37BD465DF8047B704700BFFFFF7F7F8B
:101990002DE9F04198B000AFF860B9607A60CD4BA6
:1019A000DB7D042B40F09A8100233B640023FB6520
:1019B0004FF00003BB654FF000037B6507F1300378
:1019C00000221A605A609A60DA6007F12003002250
:1019D0001A605A609A60DA60FB68D3F801402346C7
:1019E0001C46FB68D3F805502B461D46FB68383370
:1019F000D3F8016033461E46FB683833D3F805C080
:101A000063469C46FB687033D3F801E073469E46FC
:101A1000FB687033D3F8058043469846FB68D3EDE6
:101A2000087AFB68383393ED087AFB687033D3ED9E
:101A3000086A07F1200207F1300311461846B0EE9C
:101A4000664AF0EE473AB0EE673A02EE908A02EE4E
:101A500010EA01EE90CA01EE106A00EE905A00EE14
:101A6000104AFFF73BFE034687F84030FB68D3F887
:101A7000014023461C46FB68D3F805502B461D4603
:101A8000FB683833D3F8016033461E46FB683833B1
:101A9000D3F805C063469C46FB68A833D3F801E041
:101AA00073469E46FB68A833D3F8058043469846A4
:101AB000FB68D3ED087AFB68383393ED087AFB684E
:101AC000A833D3ED086A07F120031A1D07F130038C
:101AD000043311461846B0EE664AF0EE473AB0EECF
:101AE000673A02EE908A02EE10EA01EE90CA01EE29
:101AF000106A00EE905A00EE104AFFF7EFFD034621
:101B000087F84130FB68A833D3F8014023461C46D0
:101B1000FB68A833D3F805502B461D46FB683833C5
:101B2000D3F8016033461E46FB683833D3F805C04E
:101B300063469C46FB687033D3F801E073469E46CB
:101B4000FB687033D3F8058043469846FB68A8339A
:101B5000D3ED087AFB68383393ED087AFB6870336D
:101B6000D3ED086A07F1200303F1080207F13003FF
:101B7000083311461846B0EE664AF0EE473AB0EE2A
:101B8000673A02EE908A02EE10EA01EE90CA01EE88
:101B9000106A00EE905A00EE104AFFF79FFD0346D0
:101BA00087F84230FB68D3F8014023461C46FB68A7
:101BB000D3F805502B461D46FB687033D3F80160FF
:101BC00033461E46FB687033D3F805C063469C4617
:101BD000FB68A833D3F801E073469E46FB68A83340
:101BE000D3F8058043469846FB68D3ED087AFB6836
:101BF000703393ED087AFB68A833D3ED086A07F1D8
:101C0000200303F10C0207F130030C331146184690
:101C1000B0EE664AF0EE473AB0EE673A02EE908ACE
:101C200002EE10EA01EE90CA01EE106A00EE905A40
:101C300000EE104AFFF752FD034687F843300023B9
:101C40003B6526E007F140023B6D13441B78002BF7
:101C50001CD0FB6D0133FB653B6D9B0060333B4447
:101C6000303BD3ED007A97ED167A77EE277AC7ED01
:101C7000167A3B6D9B0060333B44403BD3ED007ACA
:101C800097ED157A77EE277AC7ED157A3B6D01331C
:101C90003B653B6D032BD5DDFB6D002B1CDDFB6D28
:101CA00007EE903AB8EEE77AD7ED166AC6EE877A75
:101CB000BB68C3ED007AFB6D07EE903AB8EEE77AA9
:101CC000D7ED156AC6EE877A7B68C3ED007A0123EB
:101CD000BFE000BFC80200200023BAE007F11403F0
:101CE00000221A605A609A60002387F84730002368
:101CF000FB640023BB641AE0BA6C1346DB009B1A3A
:101D0000DB001A46FB681344D3ED087AF5EEC07A7F
:101D1000F1EE10FA08DDFB6C5A1CFA649B0060338C
:101D20003B44BA6C43F84C2CBB6C0133BB64BB6CBA
:101D3000032BE1DD7B691A461346DB009B1ADB00AF
:101D40001A46FB681344D3F8014023461C467B69BE
:101D50001A461346DB009B1ADB001A46FB68134445
:101D6000D3F805502B461D46BB691A461346DB00C7
:101D70009B1ADB001A46FB681344D3F80160334614
:101D80001E46BB691A461346DB009B1ADB001A4647
:101D9000FB681344D3F805C063469C46FB691A46AA
:101DA0001346DB009B1ADB001A46FB681344D3F88A
:101DB00001E073469E46FB691A461346DB009B1AF8
:101DC000DB001A46FB681344D3F805804346984667
:101DD0007B691A461346DB009B1ADB001A46FB6838
:101DE0001344D3ED087ABB691A461346DB009B1AED
:101DF000DB001A46FB68134493ED087AFB691A4628
:101E00001346DB009B1ADB001A46FB681344D3ED34
:101E1000086A7968B868B0EE664AF0EE473AB0EE04
:101E2000673A02EE908A02EE10EA01EE90CA01EEE5
:101E3000106A00EE905A00EE104AFFF74FFC03467E
:101E400087F8473097F84730002B01D0012300E096
:101E5000002318466037BD46BDE8F0810000000051
:101E6000B0B584B000AF78607B681B685C4A934271
:101E700040F0AA805B4B1B78012B40F29D805A4BAF
:101E800093ED007A574B1B785A1E574913465B0057
:101E900013449B000B44D3ED007A77EE677A17EE7C
:101EA000900AFEF751FB02460B469FED491B43EC9F
:101EB000102B0CF0BDF955EC104B4B4B93ED017A08
:101EC000484B1B785A1E484913465B0013449B003D
:101ED0000B440433D3ED007A77EE677A17EE900A5D
:101EE000FEF732FB02460B469FED391B43EC102BED
:101EF0000CF09EF953EC102B20462946FEF7C6F94C
:101F000002460B4643EC172BB0EE470AF0EE670A89
:101F10000CF0FEF953EC102B10461946FEF764FE48
:101F20000346FB602F4B1B785A1E2F4913465B005C
:101F300013449B000B4408331A682B4B9B68D31A3D
:101F40001846FEF7DFFA4FF00002284BFEF77EFC42
:101F500002460B4610461946FEF746FE0346BB6096
:101F600097ED037AD7ED027AC7EE276A16EE900A4C
:101F7000FEF7EAFA18A3D3E90023FEF73DFB024679
:101F80000B461B49C1E91823194BD3E918014FF03F
:101F90000002184BFEF7A2FD0346002B04D0144BA1
:101FA000012283F85D2007E0114B002283F85D20B9
:101FB0000F4B002283F85C20C02200210A4807F062
:101FC000BFFC084B00221A7000BF1037BD46B0BDE1
:101FD0000000000000000040CDCCCCCCCCCC0C40AC
:101FE000000400406C040020AC03002000408F403F
:101FF000C8020020000052402DE9B04FADF5BA6D87
:1020000000AF07F5BA63A3F5A07318464FF48073C9
:102010001A46002107F094FC07F5BA63A3F5AC73E8
:102020001A460023136053609360D36013615361B9
:1020300007F5BA63A3F50E731846E0231A4600218C
:1020400007F07EFC07F5BA63A3F5117300221A604E
:102050005A601A8107F5BA63A3F5347318468923C9
:102060001A46002107F06CFC07F5BA63A3F5577315
:10207000184689231A46002107F062FC07F5BA6367
:10208000A3F57A73184689231A46002107F058FCF5
:1020900007F5BA63A3F27443184689231A46002150
:1020A00007F04EFC07F5BA63A3F5A0631846892331
:1020B0001A46002107F044FC4FF0000307F5B76211
:1020C000136007F5BA63A3F5A863184640231A46C0
:1020D000002107F035FC07F5BA63A3F5AD63184698
:1020E00028231A46002107F02BFC04F013FB01F013
:1020F0009FF9FFF717F8FEF77FFF01F009FA01F0EB
:10210000F7FC01F0B9FB01F053FC01F003FC04F013
:1021100067FB03461946A84808F074FB0023C7F87C
:10212000CC3512E0D7F8CC354FF4966202FB03F1C0
:1021300007F5BA63A3F5A863D7F8CC2543F82210B6
:10214000D7F8CC350133C7F8CC359C4B1B791A46F0
:10215000D7F8CC359342E5D30023C7F8C8351AE049
:10216000D7F8C83541F6E84202FB03F3934A1279E7
:1021700011464FF4966201FB02F2991807F5BA6313
:10218000A3F5AD63D7F8C82543F82210D7F8C835B2
:102190000133C7F8C835894B5B791A46D7F8C8357B
:1021A0009342DDD3864A874B1B881380864801F013
:1021B00001FE854801F022FE0346002B1FD1824814
:1021C00001F0EFFE804802F0AAFA7F4802F0DCFC42
:1021D0007D4802F0BEFA7D4B00225A627C4806F030
:1021E00003FB7C4B00225A627B4806F065FB4FF0F4
:1021F000804300225A62794806F0F6FA09E004F0BA
:10220000EFFA01464FF4FC73754A764808F0FAFA83
:10221000FEE7754B5B7883F00103DBB2002B00F027
:10222000A580694802F0C5F9674802F0ADFC664830
:1022300002F0D7F9644801F0B8FF634B9B7E03F0CE
:102240006003002B05D1604BDB7E03F00203002B03
:10225000F0D05D4B9B7E03F06003002B00F0838089
:102260004FF080435B6A604A5360FFF78DF807F1D7
:10227000D00389220021184607F062FB524802F081
:1022800023FD0346C7F89435D7F89435002BC0DDFD
:10229000D7F8942507F1D00319464B4802F04CFDBE
:1022A00007F5BA63A3F5A0635B7A102BB1D107F5EC
:1022B000BA63A3F5A0631B7B87F8933507F5BA6370
:1022C000A3F5A063DB7A87F892353C4B1B7997F82E
:1022D00093259A429DD2394B9B7997F892259A4241
:1022E00097D24FF080435B6A3F4A93603E4B9A68B7
:1022F0003D4B5B689A4214D997F8932507F5BA636A
:10230000A3F5A86353F822202C4B1B681A44364BC4
:102310009B681A44344B5B684FF08041D31A4B6280
:1023200016E097F8932507F5BA63A3F5A86353F869
:102330002220224B1B681A442B4B9B681A442A4BC1
:102340005B68D31A4FF0804203F5C333A033536266
:102350001A4A97F892355372234B01225A70224B36
:102360000022DA7055E7FFF70FF852E707F592639E
:102370004FF480720021184607F0E2FA1A4B9B6D69
:102380000133194A9365184B00229A75164B0022A7
:102390009A8200BF4FF080435B6A002BFAD04FF067
:1023A00080435B6A092BF5D8044B0022DA710E4B8F
:1023B00000229A7094E100BFC8F3000800000020DA
:1023C0003003002028F4000810000020000C00401A
:1023D0005C0500200004004014050020CC0400200F
:1023E000E8F30008FCF30008C802002000BF4FF02B
:1023F00080435A6AA94BDB79194607F5BA63A3F5FE
:10240000A86353F821309A42F1D34FF41671A448CF
:1024100001F064FFA24801F0B7FEA14802F0C9F83C
:102420009F4802F0B1FB9E4802F0DBF89C4801F0A7
:10243000BCFE9B4B9B7E03F06003002B05D1984BA9
:10244000DB7E03F00203002BF0D04FF080435B6A89
:10245000944A5360FEF798FF914B9B7E03F0600314
:10246000002B00F023818E4802F02EFC0346C7F8B3
:102470009C35D7F89C35002B40F3238107F540733A
:1024800089220021184607F05BFAD7F89C2507F54A
:1024900040731946824802F04FFC07F5BA63A3F572
:1024A00034735B7A102B40F00C8107F5BA63A3F507
:1024B0003473DB7A87F89B35784B9B7997F89B25AB
:1024C0009A4203D2754A97F89B3553724FF0804376
:1024D0005B6A744A9360734B9B7883F00103DBB2B1
:1024E000002B36D06F4B9A686E4B5B689A4215D9B9
:1024F0006A4BDB791A4607F5BA63A3F5A86353F86C
:102500002220664B1B681A44664B9B681A44654B35
:102510005B684FF08041D31A4B6217E05F4BDB7969
:102520001A4607F5BA63A3F5A86353F822205B4B5C
:102530001B681A445B4B9B681A445A4B5B68D31A5E
:102540004FF0804203F5C333A0335362554B012251
:102550009A70524BDB7907F592621B01D01807F590
:10256000407309330722194607F0DCF94D4B01226D
:102570001A7001224C4B9A704A4B1B7883F001036E
:10258000DBB2002B2ED0454BDB79194607F5BA6339
:10259000A3F5A0720B01134401331B7803F002036F
:1025A000002B45D03D4BDB7907F592621B011344AC
:1025B000043302223C49184607F0A4F90346002BD5
:1025C00036D1384B01221A70344BDB79194607F5A6
:1025D000BA63A3F5A0720B01134406331A78324B89
:1025E0009A7025E02D4BDB79194607F5BA63A3F500
:1025F000A0720B01134401331B7803F00403002B7A
:1026000016D0264BDB7907F592621B011344043385
:1026100002222549184607F075F90346002B07D119
:1026200004F08BFC1F4B00221A701F4B00229A7083
:102630001A4BDB791C461A4802F007FFF0EE407A8D
:1026400007F5BA63A3F5A072230113440833C3ED61
:10265000007A124BDB7907F592621B0108331344B1
:10266000043307F5BA62A2F53472B2F8072092B2C9
:102670001A800C4B9B8A1AB2084BDB79194601234E
:102680008B401BB213431BB29AB2064B9A82054B86
:102690009B7D0133DAB2034B9A7512E000000020F3
:1026A00010000020C802002030030020664BDB79B8
:1026B00066499A1D51F8222001326449063341F8D7
:1026C00023204FF08043604AD27911465B6A604A0A
:1026D00042F821305C4BDB790133DAB25A4BDA71C4
:1026E000594BDA79584B1B799A42FFF47FAE574B1E
:1026F0009B78002B03D0554B0022DA700CE0534B33
:10270000DB780133DAB2514BDA70504BDB78042BB3
:1027100002D94E4B00225A704C4B1B78002B3FF4D1
:1027200078AD4C4B9B781A46474B5B791946464B24
:102730005B7A01FB03F39A42FFF66BAD454B9B7846
:102740001A46414B5B7919463F4B5B7A013301FBDB
:1027500003F39A42BFF65DAD3C4B9B7D022B7FF6A7
:1027600058AD394B00221A7200F050BE00BF4FF036
:1027700080435A6A344B1B7A194607F5BA63A3F5AE
:10278000AD6353F821309A42F1D32F4B1B7A1A468E
:102790002D4B5B7919462C4B5B7A01FB03F31344F9
:1027A0002C4A9278934240F02B8600BF4FF0804332
:1027B0005A6A254B1B7A194607F5BA63A3F5AD6330
:1027C00053F8213064339A42F0D34FF080435B6A70
:1027D0001F4A136407F58F6318220021184607F07B
:1027E000AFF807F51D7389220021184607F0A8F8F5
:1027F00007F5BA63A3F5AC7321221A70124B1B7A4A
:102800009AB207F5BA63A3F5AC73A3F801200F4B96
:102810009B7D042B09D907F58F63DA1C07F59263BA
:1028200011461846FEF7EAFD07E0084B9A8A07F5BD
:10283000BA63A3F5AC73A3F803200023C7F8C4352B
:102840000023C7F8C03533E000000020C802002094
:10285000340300203003002007F5BA63A3F5AC73FE
:10286000B3F803309BB21A46D7F8C03542FA03F3E7
:1028700003F00103002B16D0D7F8C4355B0007F531
:102880008F621344053307F59261D7F8C025120112
:1028900008320A440432128892B21A80D7F8C4353A
:1028A0000133C7F8C435D7F8C0350133C7F8C03590
:1028B000D7F8C0350F2BCFDD07F5BA63A3F55772F4
:1028C0001378012161F30203137007F5BA63A3F5CE
:1028D000577213786FF3C303137007F5BA63A3F548
:1028E000577213786FF30413137007F5BA63A3F5E7
:1028F000577213786FF34513137007F5BA63A3F596
:102900005772137843F04003137007F5BA63A3F5C9
:1029100057725378022161F38303537007F5BA634A
:10292000A3F557725378012161F30513537007F52E
:10293000BA63A3F557725378022161F3871353707A
:1029400007F5BA63A3F55773002242F03802DA7034
:10295000002242F038021A7107F51D730533022276
:10296000FF21184606F0ECFF2E4B1A8807F5BA63D4
:10297000A3F55773A3F8072007F5BA63A3F55773B8
:1029800007F5BA62A2F5AC7203F10904134607CB4E
:1029900020606160A2601B782373234801F04DFE24
:1029A000214802F0F1F807F51D73162219461E485A
:1029B00002F048F900211C4801F057FE1A4801F0C6
:1029C000F4FB194B5B7E5BB2002BF7DA4FF08043D0
:1029D0005B6A164A5364FEF7D7FC07F58F63103322
:1029E0001946114802F0BEF907F5BA63A3F5AC73B6
:1029F000D3E9042344F25B0112EB010843F100091F
:102A000007F5BA63A3F5AC73C3E90489002387F81B
:102A1000BF354FF080435B6A044A9364044B002245
:102A2000DA7534E230030020100000203403002067
:102A3000C802002000BF4FF080435A6ADE4B1B7A69
:102A4000194607F5BA63A3F5AD6353F8213097F83B
:102A5000BF1540F2145000FB01F10B4403F59663DF
:102A60009A42E8D34FF44871D44801F037FCD34878
:102A700001F08AFBD14801F09CFDD04802F084F8B7
:102A8000CE4801F0AEFDCD4801F08FFBCB4B9B7ED5
:102A900003F06003002B05D1C84BDB7E03F002037B
:102AA000002BF0D04FF0804297F8BF35526AC449EE
:102AB00012339B000B445A60FEF766FCBF4B9B7EB3
:102AC00003F06003002B00F0D381BC4802F0FCF857
:102AD0000346C7F8B035D7F8B035002B40F3C881AE
:102AE000D7F8B02507F5F4731946B44802F024F975
:102AF00007F5F47305330222B249184606F002FFC7
:102B00000346002B40F0B48107F5BA63A3F57A734E
:102B10005B7A322B40F0AC8197F8BF2507F56671E0
:102B20001346DB009B1ADB00C81807F5F473093362
:102B30001322194606F0F6FE97F8BF2507F56671D1
:102B40001346DB009B1ADB0018330B4419469B48E5
:102B500002F019F997F8BF2507F5BA63A3F50E71CE
:102B60001346DB009B1ADB000B441833D3E9002328
:102B700097F8BF15944812EB000A43F1FF3B07F5A5
:102B8000BA63A3F50E720B46DB005B1ADB0013443D
:102B90001833C3E900AB894801F008FE0346184624
:102BA000FDF7C0FC4FF0FF32884BFDF725FD0246D4
:102BB0000B4610461946FEF717F8034607F5B762AD
:102BC000136097F8BF2507F566711346DB009B1A63
:102BD000DB0008330B445A1C07F5BA63A3F5B46352
:102BE0001068186012791A7197F8BF2507F5667199
:102BF0001346DB009B1ADB0008330B449A1D07F5D4
:102C0000BA63A3F5B5631068186012791A7107F5F5
:102C1000BA63A3F5B463D3E900236B495118396152
:102C200043F1FF337B6107F5BA63A3F5B463D7E9DA
:102C30000412C3E9001207F5BA63A3F5B563D3E93B
:102C4000002344F25B015118B96043F10003FB60BB
:102C500007F5BA63A3F5B563D7E90212C3E9001219
:102C600097F8BF2507F5BA63A3F50E711346DB008D
:102C70009B1ADB000B4418331A6807F5BA63A3F5F7
:102C8000AC731B69D31AC7F8AC3507F5BA63A3F563
:102C9000B5631A6807F5BA63A3F5B4631B68D31A62
:102CA000C7F8A835D7F8AC05FDF72CFCC7E900013B
:102CB000D7F8A805FDF726FC04460D46B7EE007AC6
:102CC00007F5B763D3ED007A77EE677A17EE900ACF
:102CD000FDF73AFC02460B4620462946FDF78CFCE0
:102CE00002460B46D7E90001FDF7CEFA02460B4635
:102CF000104619464FF000024FF08043FDF7A6FD45
:102D000002460B4607F5B461C1E9002326A3D3E9C7
:102D1000002307F5B461D1E90001FDF76DFC02461F
:102D20000B461046194622A3D3E90023FDF78EFD7A
:102D300002460B4697F8BF4510461946FDF754FF6B
:102D4000014607F5BA63A3F50E722346DB001B1B91
:102D5000DB0013442033196097F8BF45174802F091
:102D6000FFFAF0EE407A07F5BA63A3F50E72234638
:102D7000DB001B1BDB0013442433C3ED007A97F800
:102D8000BF4507F1200207F1240319460B4802F062
:102D9000DBFCF0EE407A07F5BA63A3F50E7223462A
:102DA000DB001B1B14E000BF0000004A78DEB141CD
:102DB0000000000030C12D42000000201000002063
:102DC0003403002028F40008A5BFFFFFFFFF0FBE5B
:102DD000DB0013443033C3ED007A97F8BF2507F5C5
:102DE000BA63A3F2AC53196807F5BA63A3F50E7082
:102DF0001346DB009B1ADB0003442833196097F865
:102E0000BF2507F5BA63A3F5B663196807F5BA637A
:102E1000A3F50E701346DB009B1ADB0003442C3332
:102E2000196097F8BF2507F5BA63A3F50E7113462D
:102E3000DB009B1ADB000B442033D3ED007AF5EE68
:102E4000C07AF1EE10FA0DD597F8BF2507F5BA63F1
:102E5000A3F50E711346DB009B1ADB000B442033F5
:102E6000C74A1A60C74BDB7D0133DAB2C54BDA754E
:102E70004FF0804297F8BF35526AC34916339B0022
:102E80000B445A6097F8BF35013387F8BF3597F880
:102E9000BF35032B7FF6CEAD00BF4FF080435A6A9B
:102EA000BA4B1B7A194607F5BA63A3F5AD6353F81D
:102EB000213003F5C8539A42EFD3B24BDB7D022B8E
:102EC00040F29E8200BF4FF080435A6AAF4B1B7A9C
:102ED000194607F5BA63A3F5AD6353F8213003F53E
:102EE000CB5304339A42EED307F5AE738922002107
:102EF000184606F025FD07F563730A2200211846DF
:102F000006F01EFD4FF080435B6A9F4AD36607F5CB
:102F100092631846FEF73CFBC7F8B40507F11802A8
:102F200007F11C0107F566731846FEF731FD0346ED
:102F3000002B00F0BB8107F5BA63A3F2B453D3EDC5
:102F4000007AF4EE677AF1EE10FA80F19F8107F5CE
:102F5000BA63A3F5B763D3ED007AF4EE677AF1EEC6
:102F600010FA80F1938107F5BA63A3F2B453D3ED5D
:102F7000007AF0EEE77A9FED867AF4EE477AF1EE8A
:102F800010FAD4BF01230023DBB283F00103DBB2CC
:102F9000002B40F07B8107F5BA63A3F5B763D3ED4F
:102FA000007AF0EEE77A9FED7A7AF4EE477AF1EE66
:102FB00010FAD4BF01230023DBB283F00103DBB29C
:102FC000002B40F06381734B1B78184607F5BA63FA
:102FD000A3F2B4531A68704903465B0003449B0094
:102FE0000B441A606B4B1B78184607F5BA63A3F5C0
:102FF000B7631A68684903465B0003449B000B44AF
:1030000004331A60634B1B781C4603F0E9FB02464D
:10301000614923465B0023449B000B4408331A603C
:103020005C4B1B780133DAB25A4B1A70554B0022B5
:1030300083F85D20534B93F85D30002B00F00F8137
:10304000504B93F85C3083F00103DBB2002B29D0A6
:1030500007F5BA63A3F2B453D3ED007A07F1500336
:10306000F0EE671A9FED4D1ADFED4D0AB6EE000A3D
:103070001846FEF7F1F807F5BA63A3F5B763D3ED89
:10308000007A07F13803F0EE671A9FED441ADFED7E
:10309000440AB6EE000A1846FEF7DEF8394B012264
:1030A00083F85C20374BD3E9180133A3D3E900231D
:1030B000FDF732FD0346002B74D007F5BA63A3F287
:1030C000B453D3ED007A07F15003B0EE670A184607
:1030D000FEF7E0F8F0EE407A07F5BA63A3F5117356
:1030E00017EE902AC3F8022007F5BA63A3F5B76379
:1030F000D3ED007A07F13803B0EE670A1846FEF701
:10310000C9F8F0EE407A07F5BA63A3F5117317EE2C
:10311000902AC3F8062007F5BA63A3F2B453D3ED9F
:10312000007A07F15003B0EE670A1846FEF7B2F8CE
:10313000F0EE407A07F5BA63A3F5117317EE902A03
:10314000C3F8022007F5BA63A3F5B763D3ED007A9D
:1031500007F13803B0EE670A1846FEF79BF8F0EE69
:10316000407A07F5BA63A3F5117317EE902AC3F8F6
:1031700006209BE0AFF30080CDCCCCCCCCCC0C4077
:103180006F12833AC80200203403002000000020A0
:10319000FFFF7F7F6C040020AC0300200AD7233C94
:1031A000CDCC4C3E07F5BA63A3F2B453D3ED007A0D
:1031B00007F15003B0EE670A1846FEF76BF8F0EE21
:1031C000407A07F5BA63A3F5117317EE902AC3F896
:1031D000022007F5BA63A3F5B763D3ED007A07F1D0
:1031E0003803B0EE670A1846FEF754F8F0EE407A5E
:1031F00007F5BA63A3F5117317EE902AC3F80620FA
:1032000007F5BA63A3F2B453D3ED007A07F1500384
:10321000B0EE670A1846FEF73DF8F0EE407A07F583
:10322000BA63A3F5117317EE902AC3F8022007F5CD
:10323000BA63A3F5B763D3ED007A07F13803B0EEB4
:10324000670A1846FEF726F8F0EE407A07F5BA63EB
:10325000A3F5117317EE902AC3F8062026E007F5B0
:10326000BA63A3F2B4531A6807F5BA63A3F51173EE
:10327000C3F8022007F5BA63A3F5B7631A6807F528
:10328000BA63A3F51173C3F806200FE007F5BA631C
:10329000A3F511734FF00002C3F8022007F5BA63DB
:1032A000A3F511734FF00002C3F8062007F5BA63C7
:1032B000A3F5117343221A70594B9A7807F5BA6334
:1032C000A3F511735A7007F5BA63A3F27442137829
:1032D000012161F30203137007F5BA63A3F274428C
:1032E00013786FF3C303137007F5BA63A3F2744244
:1032F00013786FF30413137007F5BA63A3F27442E3
:1033000013786FF34513137007F5BA63A3F2744291
:10331000137843F04003137007F5BA63A3F27442C5
:103320005378022161F38303537007F5BA63A3F264
:1033300074425378012161F30513537007F5BA63A2
:10334000A3F274425378022161F38713537007F597
:10335000BA63A3F27443002242F03802DA7000220A
:1033600042F038021A7107F59262D7F8B4351B01A2
:103370000833134404331B889AB207F5BA63A3F2E7
:103380007443A3F80520264B1A8807F5BA63A3F205
:103390007443A3F8072007F5BA63A3F2744307F553
:1033A000BA62A2F5117103F109020B4603CB10605A
:1033B00051601B8813811B4801F03FF9194801F047
:1033C000E3FB07F5AE7313221946164801F03AFCE9
:1033D0000021144801F049F9124800F0E6FE114BB3
:1033E0005B7E5BB2002BF7DA4FF080435B6A0E4ADC
:1033F0001367FDF7C9FF4FF080435B6A0A4A5367C2
:103400000A4B1B7A0133DAB2084B1A72074B1A7A4D
:10341000064B5B799A42FFF4A9A9FEF7FABE00BFFA
:1034200030030020100000203403002000000020A2
:1034300080B594B000AF07F1200330220021184678
:1034400006F07EFA07F10C0300221A605A609A60B7
:10345000DA601A610023BB60284B1B6C274A43F0DB
:1034600080531364254B1B6C03F08053BB60BB6817
:1034700000237B60224B1B68214A43F48043136086
:103480001F4B1B6803F480437B607B6801233B6216
:103490004FF480337B620223BB634FF48003FB63F2
:1034A00004233B64A0237B640223BB640423FB64EA
:1034B00007F12003184603F007FF0346002B01D055
:1034C00000F020F80F23FB6002233B6100237B61A7
:1034D0004FF4A053BB614FF48053FB6107F10C0321
:1034E0000521184604F068F90346002B01D000F0CE
:1034F00009F800BF5037BD4680BD00BF003802400C
:103500000070004080B400AF72B600BFFEE700005C
:1035100080B500AF174B184A1A60164B4FF48272F1
:103520005A60144B00229A60124B0022DA60114B51
:1035300000221A610F4B00225A610E4B4FF40072A9
:103540009A610C4B2022DA610A4B00221A62094B65
:1035500000225A62074B00229A62064B0A22DA6264
:10356000044804F049FB0346002B01D0FFF7CAFFD3
:1035700000BF80BD700400200030014080B58AB0DB
:1035800000AF786007F1140300221A605A609A6055
:10359000DA601A617B681B68194A93422BD10023B9
:1035A0003B61184B5B6C174A43F480535364154BD3
:1035B0005B6C03F480533B613B690023FB60114B60
:1035C0001B6B104A43F0010313630E4B1B6B03F09C
:1035D0000103FB60FB68E0237B610223BB610023E6
:1035E000FB6103233B6205237B6207F11403194649
:1035F000054803F0B3FC00BF2837BD4680BD00BFBF
:1036000000300140003802400000024080B483B026
:1036100000AF00237B60104B5B6C0F4A43F4804388
:1036200053640D4B5B6C03F480437B607B68002329
:103630003B60094B1B6C084A43F080531364064BF4
:103640001B6C03F080533B603B6800BF0C37BD46EA
:103650005DF8047B704700BF0038024080B400AFC3
:10366000FEE780B500AF03F068FCFEE780B400AF72
:10367000FEE780B400AFFEE780B400AFFEE780B4A1
:1036800000AF00BFBD465DF8047B704780B400AF5B
:1036900000BFBD465DF8047B704780B400AF00BF3B
:1036A000BD465DF8047B704780B500AF03F084F839
:1036B00000BF80BD80B500AF024805F06DF900BFC6
:1036C00080BD00BF1405002080B400AF0123184660
:1036D000BD465DF8047B704780B582B000AF78606E
:1036E000396006F0DDF8034616221A604FF0FF330A
:1036F00018460837BD4680BD80B582B000AF7860FF
:103700004FF0FF317868FFF7E7FFFEE780B586B03E
:1037100000AFF860B9607A6000237B610AE0AFF324
:1037200000800146BB685A1CBA60CAB21A707B6935
:1037300001337B617A697B689A42F0DB7B681846CB
:103740001837BD4680BD80B586B000AFF860B9605F
:103750007A6000237B6109E0BB685A1CBA601B7861
:103760001846FDF7FFFD7B6901337B617A697B6851
:103770009A42F1DB7B6818461837BD4680BD80B49D
:1037800083B000AF78604FF0FF3318460C37BD466A
:103790005DF8047B704780B483B000AF7860396017
:1037A0003B684FF400525A60002318460C37BD4660
:1037B0005DF8047B704780B483B000AF786001236C
:1037C00018460C37BD465DF8047B704780B485B061
:1037D00000AFF860B9607A60002318461437BD4620
:1037E0005DF8047B7047000080B586B000AF78605C
:1037F000144A154BD31A7B617B693B61134B1B68E1
:10380000002B02D1114B124A1A60104B1A687B68C8
:1038100013443A699A4207D206F042F803460C2252
:103820001A604FF0FF3309E0084B1B68FB60074B41
:103830001A687B681344054A1360FB6818461837FA
:10384000BD4680BD0000022000040000C804002026
:103850008006002080B400AF064BD3F88830054ABC
:1038600043F47003C2F8883000BFBD465DF8047BA6
:10387000704700BF00ED00E080B586B000AF07F1F3
:10388000080300221A605A609A60DA603B46002200
:103890001A605A601D4B4FF080421A601B4B4F223A
:1038A0005A601A4B00229A60184B194ADA60174B7B
:1038B00000221A61154B00229A61144804F044FF5B
:1038C0000346002B01D0FFF71DFE4FF48053BB6071
:1038D00007F1080319460D4805F066F90346002B69
:1038E00001D0FFF70FFE00233B6000237B603B46C7
:1038F0001946064805F082FB0346002B01D0FFF76E
:1039000001FE00BF1837BD4680BD00BFCC040020BB
:103910009F86010080B586B000AF07F10803002242
:103920001A605A609A60DA603B4600221A605A6058
:103930001D4B1E4A1A601C4B41F63F725A601A4BCF
:1039400000229A60184B42F20F72DA60164B002286
:103950001A61154B00229A61134804F0F5FE0346E4
:10396000002B01D0FFF7CEFD4FF48053BB6007F171
:10397000080319460C4805F017F90346002B01D03F
:10398000FFF7C0FD00233B6000237B603B461946E8
:10399000054805F033FB0346002B01D0FFF7B2FDCD
:1039A00000BF1837BD4680BD14050020000400404C
:1039B00080B586B000AF07F1080300221A605A6094
:1039C0009A60DA603B4600221A605A601D4B1E4A1C
:1039D0001A601C4B4F225A601A4B00229A60194BF6
:1039E0004FF0FF32DA60174B00221A61154B0022AC
:1039F0009A61144804F0A8FE0346002B01D0FFF79B
:103A000081FD4FF48053BB6007F1080319460D4850
:103A100005F0CAF80346002B01D0FFF773FD002321
:103A20003B6000237B603B461946064805F0E6FAFA
:103A30000346002B01D0FFF765FD00BF1837BD46D8
:103A400080BD00BF5C050020000C004080B586B042
:103A500000AF78607B681B68B3F1804F0ED1002304
:103A60007B61204B1B6C1F4A43F0010313641D4B09
:103A70001B6C03F001037B617B692EE07B681B6894
:103A8000194A934216D100233B61164B1B6C154A11
:103A900043F002031364134B1B6C03F002033B61FE
:103AA0003B69002200211D2003F01DFA1D2003F0B8
:103AB00036FA12E07B681B680C4A93420DD1002352
:103AC000FB60084B1B6C074A43F008031364054B6B
:103AD0001B6C03F00803FB60FB6800BF1837BD4692
:103AE00080BD00BF0038024000040040000C0040D0
:103AF00080B500AF104B114A1A600F4B104A5A6044
:103B00000D4B00229A600C4B0022DA600A4B002217
:103B10001A61094B0C225A61074B00229A61064B2D
:103B20000022DA61044805F0F9FA0346002B01D0BF
:103B3000FFF7E8FC00BF80BDA40500200010014095
:103B400080841E0080B58AB000AF786007F114034E
:103B500000221A605A609A60DA601A617B681B68FA
:103B6000194A93422BD100233B61184B5B6C174AD7
:103B700043F010035364154B5B6C03F010033B617F
:103B80003B690023FB60114B1B6B104A43F002039F
:103B900013630E4B1B6B03F00203FB60FB68C02337
:103BA0007B610223BB610023FB6103233B6207238C
:103BB0007B6207F114031946054803F0CFF900BFF3
:103BC0002837BD4680BD00BF0010014000380240CC
:103BD00000040240DFF834D00D480E490E4A00239D
:103BE00002E0D458C4500433C4188C42F9D30B4AB1
:103BF0000B4C002301E013600432A242FBD3FFF719
:103C000029FE05F053FEFEF7F7F970470000022089
:103C1000000000205C02002090F9000860020020F3
:103C20007C060020FEE780B489B000AFF860B96080
:103C30007A60FB707B68DB08FB61FA69BB689A42BB
:103C400028D2FA68FB691344BB617B6803F0070361
:103C50007B61FB78002B0DD0BB691B785AB2012128
:103C60007B6901FA03F35BB213435BB2DAB2BB695F
:103C70001A7010E0BB691B785AB201217B6901FA06
:103C800003F35BB2DB435BB213405BB2DAB2BB69F6
:103C90001A7000E000BF2437BD465DF8047B704712
:103CA00080B489B000AFF860B9607A607B68DB08E7
:103CB000FB61FA69BB689A4201D3002313E0FA68FA
:103CC000FB6913441B78FB767B6803F007037B6179
:103CD000FA7E7B6942FA03F303F00103002B14BF61
:103CE00001230023DBB218462437BD465DF8047B70
:103CF000704780B487B000AFF860B9607A60002385
:103D00007B610CE07B69DB00BA6842FA03F1FA6878
:103D10007B691344CAB21A707B6901337B617A698B
:103D20007B689A42EED300BF00BF1C37BD465DF8EA
:103D3000047B704780B588B002AFF8600B467A60AC
:103D40007B817B89DBB23B757B891B0A9BB2DBB233
:103D50007B7507F114030222009204222D21F868DA
:103D600002F06AFC032306222D21F86802F0A7FC6A
:103D7000012306222D21F86802F0A1FC0423009300
:103D80007B680A222D21F86802F0EEFB0023062250
:103D90002D21F86802F093FC00BF1837BD4680BDA6
:103DA00080B483B000AF786000BF0C37BD465DF8CB
:103DB000047B704780B483B000AF78607B680D4AA5
:103DC0001A607B680C4A9A637B680B4ADA637B68EB
:103DD000094A1A647B68084A5A647B68064A9A64EE
:103DE0007B68054ADA6400BF0C37BD465DF8047B8A
:103DF000704700BF6C000020A13D000880B586B070
:103E000002AF78600021786800F01CF97B681B68BD
:103E1000DB680521786898477B681B681B697868B0
:103E200098477B681B68DB68052178689847786845
:103E300000F0A9F8F860FB68274A934201D00123FB
:103E400045E07B68093304223821184605F078FDE7
:103E50007B6809330422009200220321786802F073
:103E6000EBFB7B680D3304220021184605F068FD4A
:103E70000021786800F087FA0121786800F0A0FA44
:103E8000786800F081F9786800F062FB786800F0EB
:103E9000D0F90121786800F0D5F87B681B68DB68F1
:103EA000052178689847786800F018F87B681B68E7
:103EB000DB680521786898470221786800F0C2F82D
:103EC0007B681B68DB6805217868984700231846E3
:103ED0001037BD4680BD00BF3001CADE80B586B058
:103EE00002AF786007F10C0304220021184605F0A8
:103EF00027FD07F1080302220021184605F020FDE6
:103F000007F10C030422009200223621786802F0A7
:103F10002BFB07F108030222009206222D2178686C
:103F200002F022FB01233B7303237B7300233B72CC
:103F300080237B7207F10C030422009200223621B9
:103F4000786802F079FB07F108030222009206224A
:103F50002D21786802F070FB7B681B68DB68052107
:103F60007868984700233B7302237B7307F10C03A7
:103F70000422009200223621786802F05DFB00BF27
:103F80001037BD4680BD80B582B000AF786000229A
:103F90000021786802F03BFB034618460837BD460F
:103FA00080BD80B584B000AF78600022262178689B
:103FB00002F02DFBF860FB6823F47F53FB60FB6885
:103FC00043F4AA53FB60FB6800222621786802F0C4
:103FD0008DFB0023FB6000222621786802F017FB8E
:103FE000F86000223621786802F011FBF860FB6867
:103FF00043F40403FB60FB6800223621786802F07A
:1040000075FB4FF48873FB60FB68282236217868C3
:1040100002F06CFBFB6843F47023FB60FB68282212
:104020003621786802F062FBFB6823F47023FB60A2
:10403000FB6828223621786802F058FB00BF103751
:10404000BD4680BD80B586B002AF78600B46FB7080
:1040500007F10C0304220021184605F071FC07F15A
:104060000C030422009200223621786802F07CFAC8
:10407000FB78002B0DD17B681B689B68002178685A
:10408000984700233B737B7B23F00103DBB27B73F8
:1040900026E0FB78012B10D17B681B689B68002110
:1040A000786898473B7B23F00303DBB23B733B7B91
:1040B00043F00103DBB23B7312E0FB78022B0FD11C
:1040C0007B681B689B680121786898473B7B23F0DD
:1040D0000303DBB23B733B7B43F00203DBB23B7376
:1040E00007F10C030122009200223621786802F0C9
:1040F000A3FA07F10C03042200920022362178680B
:1041000002F09AFA00BF1037BD4680BD80B586B078
:1041100002AF786007F10C030422009200223621DE
:10412000786802F021FAFB7B23F01003DBB2FB730B
:1041300007F10C030422009200223621786802F075
:104140007BFAFB7B43F01003DBB2FB7307F10C033C
:104150000422009200223621786802F06DFA00BF36
:104160001037BD4680BD80B584B002AF78607B68F3
:104170000D330422009200220421786802F0F4F941
:1041800000BF0837BD4680BD80B584B002AF7860FF
:104190007B680D330422009200220421786802F02B
:1041A0004BFA00BF0837BD4680BD80B584B002AF72
:1041B00078607B6819330522009200220F2178680D
:1041C00002F0D2F900BF0837BD4680BD80B584B08B
:1041D00002AF78607B680933042200920022032139
:1041E000786802F0C1F900BF0837BD4680BD80B5D0
:1041F00084B002AF78607B68093304220092002209
:104200000321786802F018FA00BF0837BD4680BD68
:1042100080B584B002AF78607B68113304220092CD
:1042200000220E21786802F09FF900BF0837BD46D2
:1042300080BD80B584B002AF78607B681133042202
:10424000009200220E21786802F0F6F900BF0837CC
:10425000BD4680BD80B584B002AF78607B68153301
:104260000422009200221F21786802F07DF900BF2D
:104270000837BD4680BD80B584B002AF78607B68EA
:1042800015330422009200221F21786802F0D4F92D
:1042900000BF0837BD4680BD80B584B002AF7860EE
:1042A0007B681E330522009200220821786802F004
:1042B0005BF900BF0837BD4680BD80B584B002AF52
:1042C00078607B681E3305220092002208217868FE
:1042D00002F0B2F900BF0837BD4680BD80B584B09A
:1042E00002AF78600B467B80BB1C0222009200224A
:1042F0000C21786802F0A0F97B6803F10D007B883F
:10430000002B14BF01230023DBB21C220421FFF782
:104310008AFC00BF0837BD4680BD80B582B000AFC3
:1043200078600B46FB707B6803F10D00FB78002280
:104330000421FFF778FC00BF0837BD4680BD80B57B
:1043400082B000AF78600B46FB707B6803F10D0014
:10435000FB7803220421FFF766FC00BF0837BD4647
:1043600080BD80B582B000AF78600B46FB707B6883
:1043700003F10D00FB7806220421FFF754FC00BF77
:104380000837BD4680BD80B582B000AF78600B466F
:10439000FB707B6803F10D00FB78002B14BF012339
:1043A0000023DBB283F00103DBB203F00103DBB2D5
:1043B0000C220421FFF737FC00BF0837BD4680BD43
:1043C00080B582B000AF78600B46FB707B6803F16C
:1043D0000D00FB7809220421FFF725FC00BF0837F8
:1043E000BD4680BD80B582B000AF78600B46FB70E3
:1043F0007B6803F10D00FB781D220421FFF713FCFD
:1044000000BF0837BD4680BD80B582B000AF786080
:104410000B46FB707B6803F11100FB780722042137
:10442000FFF701FC00BF0837BD4680BD80B582B0F4
:1044300000AF78600B46FB707B6803F11100FB78DE
:104440000D220421FFF7EFFB7B6803F11100FB78DD
:104450000E220421FFF7E7FB00BF0837BD4680BDF1
:1044600080B582B000AF78600B46FB707B6803F1CB
:104470001100FB7812220521FFF7D5FB7B6803F1C1
:104480001100FB780F220521FFF7CDFB7B6803F1BC
:104490001100FB780C220521FFF7C5FB7B6803F1B7
:1044A0001100FB7810220521FFF7BDFB7B6803F1AB
:1044B0001100FB781A220421FFF7B5FB7B6803F19A
:1044C0001100FB781D220421FFF7ADFB00BF083768
:1044D000BD4680BD80B582B000AF78600B46FB70F2
:1044E0007B6803F11100FB7811220421FFF79BFB8D
:1044F0007B6803F11100FB7815220421FFF793FB81
:1045000000BF0837BD4680BD80B582B000AF78607F
:104510000B46FB707B6803F11100FB780A22042133
:10452000FFF781FB00BF0837BD4680BD80B582B074
:1045300000AF78600B46FB707B6803F11100FB78DD
:1045400003220421FFF76FFB00BF0837BD4680BD83
:1045500080B582B000AF78607B68113304220021FF
:10456000184605F0EDF900BF0837BD4680BD80B59F
:1045700084B002AF78607B680433042200211846BF
:1045800005F0DEF97B681B7943F04003DAB27B6803
:104590001A717B6800221A727B680433042200922D
:1045A00000220D21786802F047F800BF0837BD46A9
:1045B00080BD80B582B000AF78607868FFF7D7FF24
:1045C0007B68043304220021184605F0B9F97868A5
:1045D00000F0F4FD7B6801221A7200BF0837BD4667
:1045E00080BD80B584B002AF78607B68181D7B68A1
:1045F00093F82B30002B14BF01230023DBB283F090
:104600000103DBB203F00103DBB200220421FFF758
:104610000AFB7B68181D012308220421FFF703FB16
:104620007B6804330422009200220D21786802F096
:1046300003F800BF0837BD4680BD80B582B000AF2B
:1046400078607868FFF793FF7B68043304220021C9
:10465000184605F075F9786800F0C2FD7B68022203
:104660001A7200BF0837BD4680BD80B584B002AF66
:1046700078600B46FB707868FFF71FFE7B68181D9B
:104680007B6893F82B30002B14BF01230023DBB28F
:1046900083F00103DBB203F00103DBB2002204214B
:1046A000FFF7C1FAFB78002B06D07B68181D0123A9
:1046B00002220421FFF7B7FA7B68181D01230122AB
:1046C0000421FFF7B0FA7B68043304220092002231
:1046D0000D21786801F0B0FF7B6893F82C30002B37
:1046E0000DD07B68043304220021184605F028F918
:1046F0007B6801221A727868FFF773FF0BE07B6812
:1047000093F82D30002B03D07B6801221A7202E04F
:104710007B6800221A7200BF0837BD4680BD80B595
:1047200082B000AF78607868FFF721FF7868FFF704
:104730004DFD7868FFF717FD7868FFF78BFD786807
:10474000FFF7AAFD7868FFF763FD00BF0837BD4695
:1047500080BD80B584B002AF78607868FFF747FD10
:104760007868FFF711FD7868FFF785FD7868FFF737
:10477000A4FD7868FFF75DFD786801F03FF87B687D
:1047800030330222009200221821786801F054FF91
:104790007B6830330222009241F604022E217868B1
:1047A00001F04AFF00BF0837BD4680BD80B588B024
:1047B00002AF786000237B6107F10C0303220092B3
:1047C00028222721786801F0CFFE02233B610BE00D
:1047D0007B691B0207F10C013A690A441278134401
:1047E0007B613B69013B3B613B69002BF0DA7B69F4
:1047F00003F48013002B06D07B696FEA03336FEA62
:1048000013337B6103E07B69C3F314037B617B6932
:1048100018461837BD4680BD80B483B000AF7860BD
:104820000B46FB70FB78002B14BF01230023DBB287
:1048300083F00103DBB203F00103DAB27B6883F893
:104840002B2000BF0C37BD465DF8047B704780B558
:1048500082B000AF78600B46FB707B68FA7883F813
:104860002A207B6803F10D00FB78002B14BF012385
:104870000023DBB283F00103DBB203F00103DBB200
:1048800012220421FFF7CFF900BF0837BD4680BDD3
:1048900080B586B002AF78600B46FB70FB7803F002
:1048A0000303FB707B68DB7F23F07C03DAB27B6859
:1048B000DA777B68DA7FFB785B01DBB21343DAB22D
:1048C0007B68DA77FB78002B08D17B6803F10D0059
:1048D000012316220421FFF7A6F907E07B6803F104
:1048E0000D00002316220421FFF79DF9FB78022B0F
:1048F00018D17B6803F11500002311220421FFF772
:1049000092F97B6803F11500002314220421FFF7BC
:104910008AF97B6803F11500002315220421FFF7B3
:1049200082F917E07B6803F11500012311220421AD
:10493000FFF779F97B6803F11500012314220421A4
:10494000FFF771F97B6803F115000123152204219B
:10495000FFF769F9FB78022B02D10823FB7307E00C
:10496000FB78012B02D11023FB7301E04023FB7382
:1049700007F10F030122009200222121786801F043
:104980005BFE7B68FA7883F8262000BF1037BD46AF
:1049900080BD80B483B000AF78600B46FB70FB78BD
:1049A00003F00303FB707B6893F8203023F00303CC
:1049B000DAB27B6883F820207B6893F82020FB78AC
:1049C0001343DAB27B6883F820207B68DB7D23F019
:1049D0000C03DAB27B68DA757B68DA7DFB789B00C2
:1049E000DBB21343DAB27B68DA757B68FA7883F856
:1049F000252000BF0C37BD465DF8047B704780B4AE
:104A000083B000AF78600B46FB70FB7803F00F03B8
:104A1000FB707B6893F8203023F03C03DAB27B68AC
:104A200083F820207B6893F82020FB789B00DBB282
:104A30001343DAB27B6883F82020FB78012B02D085
:104A4000FB78052B04D17B68082283F8242016E02C
:104A5000FB78092B02D0FB780D2B04D17B68102248
:104A600083F824200BE0FB78022B04D17B68202202
:104A700083F8242003E07B68402283F824207B68AD
:104A8000FA7883F8272000BF0C37BD465DF8047B19
:104A9000704780B483B000AF78600B46FB70FB7842
:104AA000002B01D0032200E000227B6883F8232042
:104AB0007B68DB7B23F00303DAB27B68DA737B6805
:104AC000DA7B7B6893F823301343DAB27B68DA73BE
:104AD00000BF0C37BD465DF8047B704780B483B0DF
:104AE00000AF78600B46FB70FB7803F00F03FB70A0
:104AF000FB781B015AB297F9033013435BB2DAB269
:104B00007B685A757B68FA7883F8292000BF0C37D8
:104B1000BD465DF8047B704780B483B000AF786019
:104B20000B46FB70FB7803F01F03FB707B68DB7D9B
:104B300003F03F03DAB27B68DA757B68DB7D5AB23B
:104B4000FB789B015BB213435BB2DAB27B68DA7528
:104B50007B6800221A76FB789B08DBB25BB203F01D
:104B600007035AB2FB78DB005BB213435BB2DAB2E5
:104B70007B681A767B68FA7883F8282000BF0C37A8
:104B8000BD465DF8047B704780B582B000AF7860A9
:104B90007B681B7A022B4DD07B681B7A012B49D096
:104BA0007B681B7A002B45D100217868FFF771FFE5
:104BB00000217868FFF74BFE00217868FFF72CFE94
:104BC00000217868FFF7A9FB00217868FFF7B7FBA1
:104BD00000217868FFF7C5FB01217868FFF714FC16
:104BE00001217868FFF722FC01217868FFF772FC49
:104BF00000217868FFF734FC00217868FFF784FC17
:104C000000217868FFF792FC01217868FFF7EAFB42
:104C10000A49786800F048FC7B681B68DB6805215E
:104C20007868984701217868FFF711FE0449786891
:104C300000F03AFC00BF0837BD4680BD44F40008D0
:104C400048F4000880B586B002AFF860B9607A60B9
:104C5000FB6893F82B30002B02D07B6802337B601B
:104C60007B68B3F5806F29D27B687F2B04D9FB6802
:104C700093F82330002B23D07B680093BB6800227D
:104C80000921F86801F0D8FC7B68DAB2FB689A77F2
:104C9000FB68DB7F23F01F03DAB2FB68DA77FB687F
:104CA000DB7F5AB27B681B0A5BB203F003035BB283
:104CB00013435BB2DAB2FB68DA7702E000BF00E0D0
:104CC00000BF1037BD4680BD80B586B002AF7860AA
:104CD0000023FB607B681B7A022B09D17B68DB7F9A
:104CE0001B027A68927F1343C3F30903FB6013E04E
:104CF0007B681B7A012B0FD107F108030422009275
:104D000000221021786801F02FFC7B7A1B023A7A8E
:104D10001343C3F30903FB607B6893F82B30002B2C
:104D200005D0FB68022B02D9FB68023B00E0FB6860
:104D300018461037BD4680BD80B586B002AFF8601A
:104D4000B9607A607B68002B08D07B680093BB68F1
:104D500000221121F86801F007FC00E000BF1037C5
:104D6000BD4680BD80B584B002AF786039603B68D5
:104D70000522009200221721786801F0F5FB00BFA0
:104D80000837BD4680BD80B584B002AF7860396019
:104D900039684FF000024FF00003C1E900233B687F
:104DA0000522009200221521786801F0DDFB3968A8
:104DB000786800F005F800BF0837BD4680BD0000E8
:104DC0002DE9B0438AB000AF78603960786800F0B0
:104DD0003CFBF0EE407A9FED917A77EE877AF1EE28
:104DE000677AB6EE007A67EE877AC7ED057AD7ED77
:104DF000057AF0EEE77A9FED8A7AF4EE477AF1EEE3
:104E000010FA00F20681D7ED057AFDEEE77A17EE8B
:104E1000903A7B627B6A01333B627B6A002B04DC45
:104E200000237B6200233B6206E03B6A102B03DD1C
:104E300011237B6211233B620023FB610023BB61D2
:104E40007B6893F82930042B04D07B6893F82930D1
:104E5000072B57D17B6893F82530012B26D10723E8
:104E60001A463B6A934205DA6E4A3B6A13441B7842
:104E70005B4203E06B4A3B6A13441B78FB61FB69AE
:104E80005B00FB6107231A467B6A934205DA654A99
:104E90007B6A13441B785B4203E0624A7B6A1344DB
:104EA0001B78BB61BB695B00BB6177E07B6893F8F3
:104EB0002530022B72D107231A463B6A934205DA4A
:104EC000594A3B6A13441B785B4203E0564A3B6AEB
:104ED00013441B78FB61FB695B00FB6107231A46E7
:104EE0007B6A934205DA504A7B6A13441B785B4223
:104EF00003E04D4A7B6A13441B78BB61BB695B00CE
:104F0000BB614BE07B6893F82530012B20D10A234D
:104F10001A463B6A934205DA444A3B6A13441B78BB
:104F20005B4203E0414A3B6A13441B78FB610A235E
:104F30001A467B6A934205DA3C4A7B6A13441B7823
:104F40005B4203E0394A7B6A13441B78BB6126E06D
:104F50007B6893F82530022B21D108231A463B6A3F
:104F6000934205DA324A3B6A13441B785B4203E002
:104F70002F4A3B6A13441B78FB6108231A467B6A5D
:104F8000934205DA2A4A7B6A13441B785B4203E0AA
:104F9000274A7B6A13441B78BB6100E000BFBB69F2
:104FA00007EE903AB8EEE77A7B6A07EE903AF8EEB1
:104FB000E77AD7ED056A76EEE76AFA69BB69D31A34
:104FC00007EE903AF8EEE77A66EEA77A77EE277A60
:104FD000C7ED047AD7ED047A9FED167A67EE877AEB
:104FE0009FED157A67EE877AFDEEE77A17EE902A45
:104FF000D31790469946C7E902893B68D3E9000177
:10500000D7E90223841A61EB03053B68C3E9004535
:1050100000E000BF2837BD46BDE8B0830000744201
:10502000FFFF7F7F74F4000888F400084CF4000848
:1050300060F40008B32355436F12833A80B582B001
:1050400000AF78607B681933072205211846FEF708
:1050500027FE034618460837BD4680BD80B582B09E
:1050600000AF78607B6819330A2205211846FEF7E5
:1050700017FE034618460837BD4680BD80B582B08E
:1050800000AF78607B6893F82B30002B08D07B68EA
:1050900019330E2205211846FEF702FE034607E0EB
:1050A0007B6819330D2205211846FEF7F9FD0346EA
:1050B00018460837BD4680BD80B584B000AF786023
:1050C0007B681933122205211846FEF7E9FD0346D5
:1050D000FB737B6819330F2205211846FEF7E0FDAC
:1050E0000346BB737B6819330C2205211846FEF773
:1050F000D7FD03467B737B681933102205211846C0
:10510000FEF7CEFD03463B737B6819331A22052157
:105110001846FEF7C5FD0346FB727B6819331D2256
:1051200005211846FEF7BCFD0346BB72FB7B002B36
:105130000ED1BB7B002B0BD17B7B002B08D13B7BA3
:10514000002B05D1FB7A002B02D1BB7A002B01D0BA
:10515000012300E0002303F00103DBB218461037FF
:10516000BD4680BD80B582B000AF78607B681933E2
:10517000112205211846FEF793FD0346184608370D
:10518000BD4680BD80B586B002AF78600023BB60AD
:1051900000233B7307F1080001230A220521FEF7D3
:1051A00042FD07F108030522009200220F217868D2
:1051B00001F042FA00BF1037BD4680BD80B584B013
:1051C00000AF7860054BFB60FB6800220F21786818
:1051D00001F08CFA00BF1037BD4680BD00FF2724C8
:1051E00080B584B000AF7860F823FB60FB680022D4
:1051F0000F21786801F07AFA00BF1037BD4680BDF4
:1052000080B586B002AF786007F10C0304220092EB
:1052100000221021786801F0A7F9BB7B1B09DBB2E3
:105220001A46FB7B1B01134307EE903AF8EE677AB0
:10523000B0EE670A1037BD4680BD000080B588B06B
:1052400000AF87ED030AC7ED020A0346FB71FB7945
:10525000012B04D1214BFB61214BBB6103E0214BAE
:10526000FB61214BBB61D7ED027A67EEA77A97ED20
:10527000037AC7EE276AB0EE660A09F075F8F0EE19
:10528000407AB2EE047A27EE877AD7ED077A77EE86
:10529000677AC7ED057AD7ED057A9FED147AF4EEBB
:1052A000C77AF1EE10FA01D87B6910E0D7ED057AE4
:1052B0009FED0F7A37EE877AD7ED067A67EE277A79
:1052C00097ED057A77EE277AC7ED057A7B6907EEC9
:1052D000903AB0EE670A2037BD4680BD3D8AE34272
:1052E0006D561540E17AF3426D56953F0000B0C20D
:1052F0000000B04280B586B000AF87ED030AC7ED6D
:10530000020A0346FB71FB79012B02D1124B7B6130
:1053100001E0124B7B61D7ED027A67EEA77A97ED39
:10532000037AC7EE276AB0EE660A09F01DF8F0EEC0
:10533000407AB2EE047A27EE877AD7ED057A77EED7
:10534000677AC7ED047A3B6907EE903AB0EE670AD8
:105350001837BD4680BD00BF3D8AE342E17AF34283
:1053600080B58AB000AF786007221521786801F017
:1053700039F9034607EE903AF8EE677AC7ED097AF5
:1053800002221221786801F02DF9034607EE903AC7
:10539000F8EE677AC7ED087A04221221786801F0E6
:1053A00021F9034607EE903AF8EE677AC7ED077ADF
:1053B0007868FFF725FF87ED060A06221221786834
:1053C00001F010F9034607EE903AF8EE677AC7ED60
:1053D000057A4FF090433B6197ED057AD7ED047A5B
:1053E00067EE277A7B6893F825301846D7ED060AD2
:1053F000B0EE670AFFF77EFF87ED030AD7ED097A63
:1054000027EEA77AD7ED087A67EEA77A37EE277AE4
:10541000D7ED077A67EEA77A77EE277A7B6893F85D
:1054200025301846D7ED060AB0EE670AFFF762FF8F
:1054300087ED020A97ED037AD7ED027A77EE677A65
:10544000B0EE670A2837BD4680BD80B586B000AF94
:10545000786006221221786801F0C4F8034607EE4E
:10546000903AF8EE677AC7ED057A7868FFF7C8FEDC
:1054700087ED040A4FF09043FB6097ED057AD7ED76
:10548000037A67EE277A7B6893F825301846D7EDC4
:10549000040AB0EE670AFFF7D1FEF0EE407AB0EEF4
:1054A000670A1837BD4680BD80B582B000AF78600E
:1054B00039603B681B7819467868FFF7E9F93B6863
:1054C00001331B7819467868FFF763FA3B680233AB
:1054D0001B7819467868FFF792FA7B6893F82930B1
:1054E00019467868FFF7FAFA7B6893F8283019466E
:1054F0007868FFF711FB00BF0837BD4680BD00008C
:1055000080B588B000AF786005221521786801F079
:1055100069F8034607EE903AF8EE677AFCEEE77A10
:1055200017EE903AFB83FB8B9B099BB207EE903AF8
:10553000F8EEE77AFCEEE77A17EE903ABB83FB8B46
:1055400003F03F037B83BB8B07EE903AB8EEE77A1C
:105550007B8B07EE903AF8EEE76A9FED186AC6EE8D
:10556000867A77EE277AC7ED057A4FF480522E219E
:10557000786801F037F8034607EE903AF8EE677A5C
:10558000C7ED047A97ED057AD7ED047A77EE677A5E
:10559000FDEEE77A17EE903A002BB8BF5B4207EEBC
:1055A000903AF8EEE77AC7ED037AFB6807EE903A97
:1055B000B0EE670A2037BD4680BD00BF00008042C4
:1055C00080B584B000AF78607868FFF799FF87ED09
:1055D000020AB868FAF7B8FF23A3D3E90023FBF760
:1055E00087FA0346002B03D04FF00003FB6030E046
:1055F000D7ED027AB1EE087AF4EEC77AF1EE10FA3E
:1056000024D5B868FAF7A0FF17A3D3E90023FBF766
:1056100083FA0346002B19D0B868FAF795FF14A354
:10562000D3E90023FAF7E8FF02460B461046194675
:1056300011A3D3E90023FAF727FE02460B461046D2
:105640001946FBF7D1FA0346FB6002E04FF07E53A8
:10565000FB60FB6807EE903AB0EE670A1037BD4674
:1056600080BD00BFAFF300806666666666660A406E
:105670003485CE6BEC12D93F50E449D23513F53F57
:1056800080B588B000AF786007221521786800F0F7
:10569000A9FF034607EE903AF8EE677AC7ED027A63
:1056A00002221221786800F09DFF034607EE903A2F
:1056B000F8EE677AC7ED037A04221221786800F0C9
:1056C00091FF034607EE903AF8EE677AC7ED047A49
:1056D00041F202022E21786800F084FF034607EEB3
:1056E000903AF8EE677AC7ED057ABB68FB61002354
:1056F000BB6117E0BB699B0020333B44183BD3EDF3
:10570000007A97ED077AB4EEE77AF1EE10FA06D553
:10571000BB699B0020333B44183B1B68FB61BB69A2
:105720000133BB61BB69022BE4DD97ED077AD7ED4E
:10573000057AC7EE276AF0EE667AB0EE670A203780
:10574000BD4680BD0000000080B584B000AFF860A9
:10575000B9607A60F868FFF733FFF0EE407ABB6813
:10576000C3ED007AF868FFF78BFFF0EE407A7B68B4
:10577000C3ED007ABB68D3ED007AF5EE407AF1EE26
:1057800010FA0CD07B681B681846FAF7DDFE19A3E7
:10579000D3E90023FBF7B6F90346002B02D0F7EE5E
:1057A000007A1EE0BB68D3ED007AF5EEC07AF1EE28
:1057B00010FA14DD7B681B681846FAF7C5FE0DA3C6
:1057C000D3E90023FBF78AF90346002B07D0BB6817
:1057D000D3ED007AB7EE007A77EE677A01E0DFED7D
:1057E000047AB0EE670A1037BD4680BDAFF3008083
:1057F00000000000CDCCCCCCCCCCEC3F80B598B038
:1058000002AF78607B6893F82530012B08D107F14F
:105810005403022248F670011846FEF76AFA0CE0BB
:105820007B6893F82530022B07D107F1540302223D
:1058300048F69B011846FEF75CFA07F15003042274
:10584000B9491846FEF755FA07F14C0302223521F3
:105850001846FEF74EFA7B6893F82630002B07D1E6
:1058600007F14803022216211846FEF742FA18E013
:105870007B6893F82630012B07D107F148030222F9
:1058800006211846FEF735FA0BE07B6893F82630C0
:10589000022B06D107F14803022201211846FEF728
:1058A00028FA7B6893F82530012B07D107F14403D0
:1058B000022287211846FEF71CFA0BE07B6893F85A
:1058C0002530022B06D107F1440302228D21184610
:1058D000FEF70FFA7B6893F82730062B09D07B6818
:1058E00093F827300A2B04D07B6893F82730032BDA
:1058F0000CD17B6893F82630002B2AD107F14003A6
:10590000022264211846FEF7F4F922E07B6893F83E
:105910002730012B11D07B6893F82630012B04D05F
:105920007B6893F82630022B13D107F14003022243
:1059300020211846FEF7DDF90BE07B6893F826304E
:10594000022B06D107F14003022210211846FEF770
:10595000D0F97B6893F82430082B19D17B6893F831
:105960002530012B07D107F13C0304226F4918466B
:10597000FEF7BFF968E07B6893F82530022B63D10E
:1059800007F13C0304226A491846FEF7B2F95BE0CE
:105990007B6893F82430102B19D17B6893F825305D
:1059A000012B07D107F13C03042262491846FEF798
:1059B000A0F949E07B6893F82530022B44D107F128
:1059C0003C0304225C491846FEF793F93CE07B68EF
:1059D00093F82430202B19D17B6893F82530012BC4
:1059E00007D107F13C03042254491846FEF781F918
:1059F0002AE07B6893F82530022B25D107F13C0380
:105A000004224F491846FEF774F91DE07B6893F8AD
:105A10002430402B18D17B6893F82530012B07D117
:105A200007F13C03042247491846FEF762F90BE0F0
:105A30007B6893F82530022B06D107F13C03042242
:105A400041491846FEF755F97B6893F82730012B3A
:105A500007D107F13803022210211846FEF749F951
:105A600006E007F13803022228211846FEF741F923
:105A70007B6893F82930042B0CD07B6893F829308D
:105A8000072B07D007F124030122D8211846FEF77F
:105A900030F906E007F124030122BC211846FEF785
:105AA00028F97B6893F82930012B08D107F12003EE
:105AB000042245F640411846FEF71BF95AE07B6880
:105AC00093F82930022B07D107F1200304221F4944
:105AD0001846FEF70EF94DE07B6893F82930032B4A
